{
  "address": "0xCf7Ed3AccA5a467e9e704C703E8D87F634fB0Fc9",
  "abi": [
    {
      "inputs": [
        {
          "internalType": "uint256",
          "name": "entrance_Fee",
          "type": "uint256"
        },
        {
          "internalType": "address",
          "name": "vrfCoordinatorV2",
          "type": "address"
        },
        {
          "internalType": "bytes32",
          "name": "gasLane",
          "type": "bytes32"
        },
        {
          "internalType": "uint64",
          "name": "subscriptionId",
          "type": "uint64"
        },
        {
          "internalType": "uint32",
          "name": "callBackGasLimit",
          "type": "uint32"
        },
        {
          "internalType": "uint256",
          "name": "interval",
          "type": "uint256"
        }
      ],
      "stateMutability": "nonpayable",
      "type": "constructor"
    },
    {
      "inputs": [
        {
          "internalType": "uint256",
          "name": "currentBalance",
          "type": "uint256"
        },
        {
          "internalType": "uint256",
          "name": "numberOfParticipants",
          "type": "uint256"
        },
        {
          "internalType": "uint256",
          "name": "lotteryState",
          "type": "uint256"
        }
      ],
      "name": "Lottery__UpKeepNotNeeded",
      "type": "error"
    },
    {
      "inputs": [
        {
          "internalType": "address",
          "name": "have",
          "type": "address"
        },
        {
          "internalType": "address",
          "name": "want",
          "type": "address"
        }
      ],
      "name": "OnlyCoordinatorCanFulfill",
      "type": "error"
    },
    {
      "anonymous": false,
      "inputs": [
        {
          "indexed": true,
          "internalType": "uint256",
          "name": "RequestId",
          "type": "uint256"
        }
      ],
      "name": "RequestedRandomWinner",
      "type": "event"
    },
    {
      "anonymous": false,
      "inputs": [
        {
          "indexed": true,
          "internalType": "address",
          "name": "participant",
          "type": "address"
        }
      ],
      "name": "lotteryEnter",
      "type": "event"
    },
    {
      "anonymous": false,
      "inputs": [
        {
          "indexed": true,
          "internalType": "address",
          "name": "winner",
          "type": "address"
        }
      ],
      "name": "winnerPicked",
      "type": "event"
    },
    {
      "inputs": [
        {
          "internalType": "bytes",
          "name": "",
          "type": "bytes"
        }
      ],
      "name": "checkUpkeep",
      "outputs": [
        {
          "internalType": "bool",
          "name": "upkeepNeeded",
          "type": "bool"
        },
        {
          "internalType": "bytes",
          "name": "",
          "type": "bytes"
        }
      ],
      "stateMutability": "view",
      "type": "function"
    },
    {
      "inputs": [],
      "name": "enter_lottery",
      "outputs": [],
      "stateMutability": "payable",
      "type": "function"
    },
    {
      "inputs": [],
      "name": "getNumberOfParticipants",
      "outputs": [
        {
          "internalType": "uint256",
          "name": "",
          "type": "uint256"
        }
      ],
      "stateMutability": "view",
      "type": "function"
    },
    {
      "inputs": [
        {
          "internalType": "uint256",
          "name": "index",
          "type": "uint256"
        }
      ],
      "name": "getParticipant",
      "outputs": [
        {
          "internalType": "address payable",
          "name": "",
          "type": "address"
        }
      ],
      "stateMutability": "view",
      "type": "function"
    },
    {
      "inputs": [],
      "name": "i_entranceFee",
      "outputs": [
        {
          "internalType": "uint256",
          "name": "",
          "type": "uint256"
        }
      ],
      "stateMutability": "view",
      "type": "function"
    },
    {
      "inputs": [],
      "name": "i_gasLane",
      "outputs": [
        {
          "internalType": "bytes32",
          "name": "",
          "type": "bytes32"
        }
      ],
      "stateMutability": "view",
      "type": "function"
    },
    {
      "inputs": [],
      "name": "i_interval",
      "outputs": [
        {
          "internalType": "uint256",
          "name": "",
          "type": "uint256"
        }
      ],
      "stateMutability": "view",
      "type": "function"
    },
    {
      "inputs": [],
      "name": "i_subscriptionId",
      "outputs": [
        {
          "internalType": "uint64",
          "name": "",
          "type": "uint64"
        }
      ],
      "stateMutability": "view",
      "type": "function"
    },
    {
      "inputs": [
        {
          "internalType": "bytes",
          "name": "",
          "type": "bytes"
        }
      ],
      "name": "performUpkeep",
      "outputs": [],
      "stateMutability": "nonpayable",
      "type": "function"
    },
    {
      "inputs": [
        {
          "internalType": "uint256",
          "name": "requestId",
          "type": "uint256"
        },
        {
          "internalType": "uint256[]",
          "name": "randomWords",
          "type": "uint256[]"
        }
      ],
      "name": "rawFulfillRandomWords",
      "outputs": [],
      "stateMutability": "nonpayable",
      "type": "function"
    },
    {
      "inputs": [],
      "name": "s_lotteryState",
      "outputs": [
        {
          "internalType": "enum Lottery.State",
          "name": "",
          "type": "uint8"
        }
      ],
      "stateMutability": "view",
      "type": "function"
    },
    {
      "inputs": [],
      "name": "s_winner",
      "outputs": [
        {
          "internalType": "address",
          "name": "",
          "type": "address"
        }
      ],
      "stateMutability": "view",
      "type": "function"
    }
  ],
  "transactionHash": "0x149d904b5245378b592e4553d2bcd63914289ccf6dc04171f57332519a592d99",
  "args": [
    "10000000000000000",
    "0x5FbDB2315678afecb367f032d93F642f64180aa3",
    "0x79d3d8832d904592c0bf9818b621522c988bb8b0c05cdc3b15aea1b6e8db0c15",
    "1",
    "5000000",
    "300"
  ],
  "numDeployments": 1,
  "solcInputHash": "5a1d349a9c2694c2ba684d13dbe9618e",
  "bytecode": "0x6101606040523480156200001257600080fd5b50604051620018dc380380620018dc833981810160405281019062000038919062000294565b848073ffffffffffffffffffffffffffffffffffffffff1660808173ffffffffffffffffffffffffffffffffffffffff1681525050508560a081815250508473ffffffffffffffffffffffffffffffffffffffff1660c08173ffffffffffffffffffffffffffffffffffffffff16815250508360e081815250508267ffffffffffffffff166101008167ffffffffffffffff16815250508163ffffffff166101208163ffffffff16815250506000600160146101000a81548160ff021916908360018111156200010d576200010c62000330565b5b0217905550426002819055508061014081815250505050505050506200035f565b600080fd5b6000819050919050565b620001488162000133565b81146200015457600080fd5b50565b60008151905062000168816200013d565b92915050565b600073ffffffffffffffffffffffffffffffffffffffff82169050919050565b60006200019b826200016e565b9050919050565b620001ad816200018e565b8114620001b957600080fd5b50565b600081519050620001cd81620001a2565b92915050565b6000819050919050565b620001e881620001d3565b8114620001f457600080fd5b50565b6000815190506200020881620001dd565b92915050565b600067ffffffffffffffff82169050919050565b6200022d816200020e565b81146200023957600080fd5b50565b6000815190506200024d8162000222565b92915050565b600063ffffffff82169050919050565b6200026e8162000253565b81146200027a57600080fd5b50565b6000815190506200028e8162000263565b92915050565b60008060008060008060c08789031215620002b457620002b36200012e565b5b6000620002c489828a0162000157565b9650506020620002d789828a01620001bc565b9550506040620002ea89828a01620001f7565b9450506060620002fd89828a016200023c565b93505060806200031089828a016200027d565b92505060a06200032389828a0162000157565b9150509295509295509295565b7f4e487b7100000000000000000000000000000000000000000000000000000000600052602160045260246000fd5b60805160a05160c05160e0516101005161012051610140516114ff620003dd6000396000818161077401526107d80152600061069501526000818161067201526107500152600081816106510152610868015260006106150152600081816103b901526108440152600081816102f9015261034d01526114ff6000f3fe6080604052600436106100a75760003560e01c80636919207d116100645780636919207d1461019b5780636e04ff0d146101c65780637ea3e6c1146102045780638e879c8a1461022f578063c80c28a21461025a578063d4c8c37314610285576100a7565b80631b9db2ef146100ac5780631fe543e3146100e9578063382e5e7a146101125780633dc452e11461011c5780634585e33b14610147578063470cdf9714610170575b600080fd5b3480156100b857600080fd5b506100d360048036038101906100ce9190610acd565b6102b0565b6040516100e09190610b3b565b60405180910390f35b3480156100f557600080fd5b50610110600480360381019061010b9190610caf565b6102f7565b005b61011a6103b7565b005b34801561012857600080fd5b50610131610538565b60405161013e9190610d2c565b60405180910390f35b34801561015357600080fd5b5061016e60048036038101906101699190610da2565b61055e565b005b34801561017c57600080fd5b5061018561074e565b6040516101929190610e12565b60405180910390f35b3480156101a757600080fd5b506101b0610772565b6040516101bd9190610e3c565b60405180910390f35b3480156101d257600080fd5b506101ed60048036038101906101e89190610f0c565b610796565b6040516101fb929190610fef565b60405180910390f35b34801561021057600080fd5b50610219610842565b6040516102269190610e3c565b60405180910390f35b34801561023b57600080fd5b50610244610866565b6040516102519190611038565b60405180910390f35b34801561026657600080fd5b5061026f61088a565b60405161027c9190610e3c565b60405180910390f35b34801561029157600080fd5b5061029a610896565b6040516102a791906110ca565b60405180910390f35b60008082815481106102c5576102c46110e5565b5b9060005260206000200160009054906101000a900473ffffffffffffffffffffffffffffffffffffffff169050919050565b7f000000000000000000000000000000000000000000000000000000000000000073ffffffffffffffffffffffffffffffffffffffff163373ffffffffffffffffffffffffffffffffffffffff16146103a957337f00000000000000000000000000000000000000000000000000000000000000006040517f1cf993f40000000000000000000000000000000000000000000000000000000081526004016103a0929190611114565b60405180910390fd5b6103b382826108a9565b5050565b7f000000000000000000000000000000000000000000000000000000000000000034101561041a576040517f08c379a00000000000000000000000000000000000000000000000000000000081526004016104119061119a565b60405180910390fd5b6000600181111561042e5761042d611053565b5b600160149054906101000a900460ff1660018111156104505761044f611053565b5b14610490576040517f08c379a00000000000000000000000000000000000000000000000000000000081526004016104879061122c565b60405180910390fd5b6000339080600181540180825580915050600190039060005260206000200160009091909190916101000a81548173ffffffffffffffffffffffffffffffffffffffff021916908373ffffffffffffffffffffffffffffffffffffffff1602179055503373ffffffffffffffffffffffffffffffffffffffff167f6ba87006f2c53f2d227d45b3400034f16dbf4f6842816c4880d30170f3a6a16060405160405180910390a2565b600160009054906101000a900473ffffffffffffffffffffffffffffffffffffffff1681565b600061057860405180602001604052806000815250610796565b509050806105e75747600080549050600160149054906101000a900460ff1660018111156105a9576105a8611053565b5b6040517fa9e3cfef0000000000000000000000000000000000000000000000000000000081526004016105de9392919061124c565b60405180910390fd5b60018060146101000a81548160ff0219169083600181111561060c5761060b611053565b5b021790555060007f000000000000000000000000000000000000000000000000000000000000000073ffffffffffffffffffffffffffffffffffffffff16635d3b1d307f00000000000000000000000000000000000000000000000000000000000000007f000000000000000000000000000000000000000000000000000000000000000060017f000000000000000000000000000000000000000000000000000000000000000060016040518663ffffffff1660e01b81526004016106d69594939291906112bf565b6020604051808303816000875af11580156106f5573d6000803e3d6000fd5b505050506040513d601f19601f820116820180604052508101906107199190611327565b9050807f1fe6c803a34f3487c47f1c0c9d1723f1d731ab15ae39e407f7aaa1396d4b0bea60405160405180910390a250505050565b7f000000000000000000000000000000000000000000000000000000000000000081565b7f000000000000000000000000000000000000000000000000000000000000000081565b6000606060008060018111156107af576107ae611053565b5b600160149054906101000a900460ff1660018111156107d1576107d0611053565b5b14905060007f0000000000000000000000000000000000000000000000000000000000000000600254426108059190611383565b119050600080600080549050119050600080471190508380156108255750825b801561082e5750805b80156108375750815b955050505050915091565b7f000000000000000000000000000000000000000000000000000000000000000081565b7f000000000000000000000000000000000000000000000000000000000000000081565b60008080549050905090565b600160149054906101000a900460ff1681565b60008080549050826000815181106108c4576108c36110e5565b5b60200260200101516108d691906113e6565b905060008082815481106108ed576108ec6110e5565b5b9060005260206000200160009054906101000a900473ffffffffffffffffffffffffffffffffffffffff16905080600160006101000a81548173ffffffffffffffffffffffffffffffffffffffff021916908373ffffffffffffffffffffffffffffffffffffffff16021790555060008173ffffffffffffffffffffffffffffffffffffffff164760405161098190611448565b60006040518083038185875af1925050503d80600081146109be576040519150601f19603f3d011682016040523d82523d6000602084013e6109c3565b606091505b5050905080610a07576040517f08c379a00000000000000000000000000000000000000000000000000000000081526004016109fe906114a9565b60405180910390fd5b8173ffffffffffffffffffffffffffffffffffffffff167f794919b0f484b8e90b1b817ac7f880f846fbd8a9813dee2a378e820db094e3d160405160405180910390a2426002819055506000600160146101000a81548160ff02191690836001811115610a7757610a76611053565b5b02179055505050505050565b6000604051905090565b600080fd5b600080fd5b6000819050919050565b610aaa81610a97565b8114610ab557600080fd5b50565b600081359050610ac781610aa1565b92915050565b600060208284031215610ae357610ae2610a8d565b5b6000610af184828501610ab8565b91505092915050565b600073ffffffffffffffffffffffffffffffffffffffff82169050919050565b6000610b2582610afa565b9050919050565b610b3581610b1a565b82525050565b6000602082019050610b506000830184610b2c565b92915050565b600080fd5b6000601f19601f8301169050919050565b7f4e487b7100000000000000000000000000000000000000000000000000000000600052604160045260246000fd5b610ba482610b5b565b810181811067ffffffffffffffff82111715610bc357610bc2610b6c565b5b80604052505050565b6000610bd6610a83565b9050610be28282610b9b565b919050565b600067ffffffffffffffff821115610c0257610c01610b6c565b5b602082029050602081019050919050565b600080fd5b6000610c2b610c2684610be7565b610bcc565b90508083825260208201905060208402830185811115610c4e57610c4d610c13565b5b835b81811015610c775780610c638882610ab8565b845260208401935050602081019050610c50565b5050509392505050565b600082601f830112610c9657610c95610b56565b5b8135610ca6848260208601610c18565b91505092915050565b60008060408385031215610cc657610cc5610a8d565b5b6000610cd485828601610ab8565b925050602083013567ffffffffffffffff811115610cf557610cf4610a92565b5b610d0185828601610c81565b9150509250929050565b6000610d1682610afa565b9050919050565b610d2681610d0b565b82525050565b6000602082019050610d416000830184610d1d565b92915050565b600080fd5b60008083601f840112610d6257610d61610b56565b5b8235905067ffffffffffffffff811115610d7f57610d7e610d47565b5b602083019150836001820283011115610d9b57610d9a610c13565b5b9250929050565b60008060208385031215610db957610db8610a8d565b5b600083013567ffffffffffffffff811115610dd757610dd6610a92565b5b610de385828601610d4c565b92509250509250929050565b600067ffffffffffffffff82169050919050565b610e0c81610def565b82525050565b6000602082019050610e276000830184610e03565b92915050565b610e3681610a97565b82525050565b6000602082019050610e516000830184610e2d565b92915050565b600080fd5b600067ffffffffffffffff821115610e7757610e76610b6c565b5b610e8082610b5b565b9050602081019050919050565b82818337600083830152505050565b6000610eaf610eaa84610e5c565b610bcc565b905082815260208101848484011115610ecb57610eca610e57565b5b610ed6848285610e8d565b509392505050565b600082601f830112610ef357610ef2610b56565b5b8135610f03848260208601610e9c565b91505092915050565b600060208284031215610f2257610f21610a8d565b5b600082013567ffffffffffffffff811115610f4057610f3f610a92565b5b610f4c84828501610ede565b91505092915050565b60008115159050919050565b610f6a81610f55565b82525050565b600081519050919050565b600082825260208201905092915050565b60005b83811015610faa578082015181840152602081019050610f8f565b60008484015250505050565b6000610fc182610f70565b610fcb8185610f7b565b9350610fdb818560208601610f8c565b610fe481610b5b565b840191505092915050565b60006040820190506110046000830185610f61565b81810360208301526110168184610fb6565b90509392505050565b6000819050919050565b6110328161101f565b82525050565b600060208201905061104d6000830184611029565b92915050565b7f4e487b7100000000000000000000000000000000000000000000000000000000600052602160045260246000fd5b6002811061109357611092611053565b5b50565b60008190506110a482611082565b919050565b60006110b482611096565b9050919050565b6110c4816110a9565b82525050565b60006020820190506110df60008301846110bb565b92915050565b7f4e487b7100000000000000000000000000000000000000000000000000000000600052603260045260246000fd5b60006040820190506111296000830185610d1d565b6111366020830184610d1d565b9392505050565b600082825260208201905092915050565b7f4e6f7420656e6f75676820455448000000000000000000000000000000000000600082015250565b6000611184600e8361113d565b915061118f8261114e565b602082019050919050565b600060208201905081810360008301526111b381611177565b9050919050565b7f43757272656e746c79206e6f7420616363657074696e6720706172746963697060008201527f616e747300000000000000000000000000000000000000000000000000000000602082015250565b600061121660248361113d565b9150611221826111ba565b604082019050919050565b6000602082019050818103600083015261124581611209565b9050919050565b60006060820190506112616000830186610e2d565b61126e6020830185610e2d565b61127b6040830184610e2d565b949350505050565b600061ffff82169050919050565b61129a81611283565b82525050565b600063ffffffff82169050919050565b6112b9816112a0565b82525050565b600060a0820190506112d46000830188611029565b6112e16020830187610e03565b6112ee6040830186611291565b6112fb60608301856112b0565b61130860808301846112b0565b9695505050505050565b60008151905061132181610aa1565b92915050565b60006020828403121561133d5761133c610a8d565b5b600061134b84828501611312565b91505092915050565b7f4e487b7100000000000000000000000000000000000000000000000000000000600052601160045260246000fd5b600061138e82610a97565b915061139983610a97565b92508282039050818111156113b1576113b0611354565b5b92915050565b7f4e487b7100000000000000000000000000000000000000000000000000000000600052601260045260246000fd5b60006113f182610a97565b91506113fc83610a97565b92508261140c5761140b6113b7565b5b828206905092915050565b600081905092915050565b50565b6000611432600083611417565b915061143d82611422565b600082019050919050565b600061145382611425565b9150819050919050565b7f5472616e73666572206661696c65640000000000000000000000000000000000600082015250565b6000611493600f8361113d565b915061149e8261145d565b602082019050919050565b600060208201905081810360008301526114c281611486565b905091905056fea2646970667358221220c50f974b34cea1498f08d609df9a7c7cb30b28a4cf837a7d3e75d7d6579fa7c764736f6c63430008110033",
  "devdoc": {
    "author": "Aarav Jain",
    "details": "This implements ChainLink VRFV2 and ChainLink Automation",
    "kind": "dev",
    "methods": {
      "checkUpkeep(bytes)": {
        "details": "This is the function that the Chainlink Keeper nodes call they look for the upKeepNeeded to return true In order to trigger the call of upKeep, the following should happen 1. Our timeinterval should have passed 2. Lottery should have atleast 1 player 3. Our subscription should be funded with LINK 4. Lottery should be in open state"
      },
      "enter_lottery()": {
        "details": "msg.value send the money from the user to the contract Checks whether the participant is paying enough ETH to enter the lottery Also checking whether the lottery is accepting participants "
      }
    },
    "stateVariables": {
      "i_entranceFee": {
        "details": "The State Variables are kept private or immutable in order to make them gas effecient https://www.alchemy.com/overviews/solidity-gas-optimization#:~:text=What%20is%20gas%20and%20gas,code%20less%20expensive%20to%20execute. A good article on Gas Optimization in Solidity List of State variables and their purposes 1. `i_entranceFee` :Entrance fee of the lottery which will be decided by the deployer 2. `s_participants`:List of Participants 3. `i_vrfCoordinator`: 4. `i_gasLane`: 5. `i_subscriptionId`: 6. `REQUEST_CONFIRMATION`: 7. `i_callBackGasLimit`: 8. `NUM_WORDS`:"
      }
    },
    "title": "A sample lottery contract",
    "version": 1
  },
  "userdoc": {
    "events": {
      "lotteryEnter(address)": {
        "notice": "Events"
      }
    },
    "kind": "user",
    "methods": {
      "checkUpkeep(bytes)": {
        "notice": "Using Chainlink keepers to automate the execution of selecting random winners"
      },
      "i_entranceFee()": {
        "notice": "State Variables"
      },
      "s_winner()": {
        "notice": "Lottery Variables 1. `s_winner` : Winner of the previous lottery 2. `s_lotteryState` : State of the lottery 3. `s_lastTimeStamp`: Last time the winner was chosen 4. `i_interval` : An interval after which the winner would be chosen "
      }
    },
    "notice": "This contract is for creating an untemperable decentralized smart contract\\",
    "version": 1
  },
  "storageLayout": {
    "storage": [
      {
        "astId": 199,
        "contract": "contracts/lottery.sol:Lottery",
        "label": "s_participants",
        "offset": 0,
        "slot": "0",
        "type": "t_array(t_address_payable)dyn_storage"
      },
      {
        "astId": 217,
        "contract": "contracts/lottery.sol:Lottery",
        "label": "s_winner",
        "offset": 0,
        "slot": "1",
        "type": "t_address"
      },
      {
        "astId": 220,
        "contract": "contracts/lottery.sol:Lottery",
        "label": "s_lotteryState",
        "offset": 20,
        "slot": "1",
        "type": "t_enum(State)193"
      },
      {
        "astId": 222,
        "contract": "contracts/lottery.sol:Lottery",
        "label": "s_lastTimeStamp",
        "offset": 0,
        "slot": "2",
        "type": "t_uint256"
      }
    ],
    "types": {
      "t_address": {
        "encoding": "inplace",
        "label": "address",
        "numberOfBytes": "20"
      },
      "t_address_payable": {
        "encoding": "inplace",
        "label": "address payable",
        "numberOfBytes": "20"
      },
      "t_array(t_address_payable)dyn_storage": {
        "base": "t_address_payable",
        "encoding": "dynamic_array",
        "label": "address payable[]",
        "numberOfBytes": "32"
      },
      "t_enum(State)193": {
        "encoding": "inplace",
        "label": "enum Lottery.State",
        "numberOfBytes": "1"
      },
      "t_uint256": {
        "encoding": "inplace",
        "label": "uint256",
        "numberOfBytes": "32"
      }
    }
  }
}