{
  "address": "0xDe0Ec4000475a5DE026dE12267A89f56F1B888Be",
  "abi": [
    {
      "inputs": [
        {
          "internalType": "uint256",
          "name": "entrance_Fee",
          "type": "uint256"
        },
        {
          "internalType": "address",
          "name": "vrfCoordinatorV2",
          "type": "address"
        },
        {
          "internalType": "bytes32",
          "name": "gasLane",
          "type": "bytes32"
        },
        {
          "internalType": "uint64",
          "name": "subscriptionId",
          "type": "uint64"
        },
        {
          "internalType": "uint32",
          "name": "callBackGasLimit",
          "type": "uint32"
        },
        {
          "internalType": "uint256",
          "name": "interval",
          "type": "uint256"
        }
      ],
      "stateMutability": "nonpayable",
      "type": "constructor"
    },
    {
      "inputs": [
        {
          "internalType": "uint256",
          "name": "currentBalance",
          "type": "uint256"
        },
        {
          "internalType": "uint256",
          "name": "numberOfParticipants",
          "type": "uint256"
        },
        {
          "internalType": "uint256",
          "name": "lotteryState",
          "type": "uint256"
        }
      ],
      "name": "Lottery__UpKeepNotNeeded",
      "type": "error"
    },
    {
      "inputs": [
        {
          "internalType": "address",
          "name": "have",
          "type": "address"
        },
        {
          "internalType": "address",
          "name": "want",
          "type": "address"
        }
      ],
      "name": "OnlyCoordinatorCanFulfill",
      "type": "error"
    },
    {
      "anonymous": false,
      "inputs": [
        {
          "indexed": true,
          "internalType": "uint256",
          "name": "requestId",
          "type": "uint256"
        }
      ],
      "name": "RequestedRandomWinner",
      "type": "event"
    },
    {
      "anonymous": false,
      "inputs": [
        {
          "indexed": true,
          "internalType": "address",
          "name": "participant",
          "type": "address"
        }
      ],
      "name": "lotteryEnter",
      "type": "event"
    },
    {
      "anonymous": false,
      "inputs": [
        {
          "indexed": true,
          "internalType": "address",
          "name": "winner",
          "type": "address"
        }
      ],
      "name": "winnerPicked",
      "type": "event"
    },
    {
      "inputs": [
        {
          "internalType": "bytes",
          "name": "",
          "type": "bytes"
        }
      ],
      "name": "checkUpkeep",
      "outputs": [
        {
          "internalType": "bool",
          "name": "upkeepNeeded",
          "type": "bool"
        },
        {
          "internalType": "bytes",
          "name": "",
          "type": "bytes"
        }
      ],
      "stateMutability": "view",
      "type": "function"
    },
    {
      "inputs": [],
      "name": "enter_lottery",
      "outputs": [],
      "stateMutability": "payable",
      "type": "function"
    },
    {
      "inputs": [],
      "name": "getNumberOfParticipants",
      "outputs": [
        {
          "internalType": "uint256",
          "name": "",
          "type": "uint256"
        }
      ],
      "stateMutability": "view",
      "type": "function"
    },
    {
      "inputs": [
        {
          "internalType": "uint256",
          "name": "index",
          "type": "uint256"
        }
      ],
      "name": "getParticipant",
      "outputs": [
        {
          "internalType": "address payable",
          "name": "",
          "type": "address"
        }
      ],
      "stateMutability": "view",
      "type": "function"
    },
    {
      "inputs": [],
      "name": "getPotentialPrizeValue",
      "outputs": [
        {
          "internalType": "uint256",
          "name": "",
          "type": "uint256"
        }
      ],
      "stateMutability": "view",
      "type": "function"
    },
    {
      "inputs": [],
      "name": "i_entranceFee",
      "outputs": [
        {
          "internalType": "uint256",
          "name": "",
          "type": "uint256"
        }
      ],
      "stateMutability": "view",
      "type": "function"
    },
    {
      "inputs": [],
      "name": "i_gasLane",
      "outputs": [
        {
          "internalType": "bytes32",
          "name": "",
          "type": "bytes32"
        }
      ],
      "stateMutability": "view",
      "type": "function"
    },
    {
      "inputs": [],
      "name": "i_interval",
      "outputs": [
        {
          "internalType": "uint256",
          "name": "",
          "type": "uint256"
        }
      ],
      "stateMutability": "view",
      "type": "function"
    },
    {
      "inputs": [],
      "name": "i_subscriptionId",
      "outputs": [
        {
          "internalType": "uint64",
          "name": "",
          "type": "uint64"
        }
      ],
      "stateMutability": "view",
      "type": "function"
    },
    {
      "inputs": [],
      "name": "lastPrizeValue",
      "outputs": [
        {
          "internalType": "uint256",
          "name": "",
          "type": "uint256"
        }
      ],
      "stateMutability": "view",
      "type": "function"
    },
    {
      "inputs": [
        {
          "internalType": "bytes",
          "name": "",
          "type": "bytes"
        }
      ],
      "name": "performUpkeep",
      "outputs": [],
      "stateMutability": "nonpayable",
      "type": "function"
    },
    {
      "inputs": [
        {
          "internalType": "uint256",
          "name": "requestId",
          "type": "uint256"
        },
        {
          "internalType": "uint256[]",
          "name": "randomWords",
          "type": "uint256[]"
        }
      ],
      "name": "rawFulfillRandomWords",
      "outputs": [],
      "stateMutability": "nonpayable",
      "type": "function"
    },
    {
      "inputs": [],
      "name": "s_lastTimeStamp",
      "outputs": [
        {
          "internalType": "uint256",
          "name": "",
          "type": "uint256"
        }
      ],
      "stateMutability": "view",
      "type": "function"
    },
    {
      "inputs": [],
      "name": "s_lotteryState",
      "outputs": [
        {
          "internalType": "enum Lottery.State",
          "name": "",
          "type": "uint8"
        }
      ],
      "stateMutability": "view",
      "type": "function"
    },
    {
      "inputs": [],
      "name": "s_winner",
      "outputs": [
        {
          "internalType": "address",
          "name": "",
          "type": "address"
        }
      ],
      "stateMutability": "view",
      "type": "function"
    }
  ],
  "transactionHash": "0x52be9c4c1e37671c73caa72ae168c30ea43314ab3871c9ce6d59c13f783f8e33",
  "args": [
    "10000000000000000",
    "0x2Ca8E0C643bDe4C2E08ab1fA0da3401AdAD7734D",
    "0x79d3d8832d904592c0bf9818b621522c988bb8b0c05cdc3b15aea1b6e8db0c15",
    "7905",
    "500000",
    "60"
  ],
  "numDeployments": 2,
  "solcInputHash": "ad181cede336ac1322a0a06a39b0fc70",
  "bytecode": "0x61016060405260006001553480156200001757600080fd5b5060405162001d5138038062001d5183398181016040528101906200003d9190620002da565b848073ffffffffffffffffffffffffffffffffffffffff1660808173ffffffffffffffffffffffffffffffffffffffff1681525050508560a081815250508473ffffffffffffffffffffffffffffffffffffffff1660c08173ffffffffffffffffffffffffffffffffffffffff16815250508360e081815250508267ffffffffffffffff166101008167ffffffffffffffff16815250508163ffffffff166101208163ffffffff16815250506000600360146101000a81548160ff0219169083600181111562000112576200011162000376565b5b02179055504260048190555080610140818152505033600260006101000a81548173ffffffffffffffffffffffffffffffffffffffff021916908373ffffffffffffffffffffffffffffffffffffffff160217905550505050505050620003a5565b600080fd5b6000819050919050565b6200018e8162000179565b81146200019a57600080fd5b50565b600081519050620001ae8162000183565b92915050565b600073ffffffffffffffffffffffffffffffffffffffff82169050919050565b6000620001e182620001b4565b9050919050565b620001f381620001d4565b8114620001ff57600080fd5b50565b6000815190506200021381620001e8565b92915050565b6000819050919050565b6200022e8162000219565b81146200023a57600080fd5b50565b6000815190506200024e8162000223565b92915050565b600067ffffffffffffffff82169050919050565b620002738162000254565b81146200027f57600080fd5b50565b600081519050620002938162000268565b92915050565b600063ffffffff82169050919050565b620002b48162000299565b8114620002c057600080fd5b50565b600081519050620002d481620002a9565b92915050565b60008060008060008060c08789031215620002fa57620002f962000174565b5b60006200030a89828a016200019d565b96505060206200031d89828a0162000202565b95505060406200033089828a016200023d565b94505060606200034389828a0162000282565b93505060806200035689828a01620002c3565b92505060a06200036989828a016200019d565b9150509295509295509295565b7f4e487b7100000000000000000000000000000000000000000000000000000000600052602160045260246000fd5b60805160a05160c05160e051610100516101205161014051611920620004316000396000818161083d01526108a10152600061075e01526000818161073b015261081901526000818161071a0152610931015260006106de0152600081816104810152818161090d0152818161097f01526109d80152600081816103bb015261040f01526119206000f3fe6080604052600436106100e85760003560e01c80636919207d1161008a578063aa1e0b2711610059578063aa1e0b27146102c6578063c80c28a2146102f1578063d4c8c3731461031c578063f1cc967d14610347576100e8565b80636919207d146102075780636e04ff0d146102325780637ea3e6c1146102705780638e879c8a1461029b576100e8565b8063382e5e7a116100c6578063382e5e7a1461017e5780633dc452e1146101885780634585e33b146101b3578063470cdf97146101dc576100e8565b80631b9db2ef146100ed5780631fe543e31461012a5780633485404314610153575b600080fd5b3480156100f957600080fd5b50610114600480360381019061010f9190610e0f565b610372565b6040516101219190610e7d565b60405180910390f35b34801561013657600080fd5b50610151600480360381019061014c9190610ff1565b6103b9565b005b34801561015f57600080fd5b50610168610479565b604051610175919061105c565b60405180910390f35b61018661047f565b005b34801561019457600080fd5b5061019d610600565b6040516101aa9190611098565b60405180910390f35b3480156101bf57600080fd5b506101da60048036038101906101d5919061110e565b610626565b005b3480156101e857600080fd5b506101f1610817565b6040516101fe919061117e565b60405180910390f35b34801561021357600080fd5b5061021c61083b565b604051610229919061105c565b60405180910390f35b34801561023e57600080fd5b506102596004803603810190610254919061124e565b61085f565b604051610267929190611331565b60405180910390f35b34801561027c57600080fd5b5061028561090b565b604051610292919061105c565b60405180910390f35b3480156102a757600080fd5b506102b061092f565b6040516102bd919061137a565b60405180910390f35b3480156102d257600080fd5b506102db610953565b6040516102e8919061105c565b60405180910390f35b3480156102fd57600080fd5b50610306610959565b604051610313919061105c565b60405180910390f35b34801561032857600080fd5b50610331610965565b60405161033e919061140c565b60405180910390f35b34801561035357600080fd5b5061035c610978565b604051610369919061105c565b60405180910390f35b600080828154811061038757610386611427565b5b9060005260206000200160009054906101000a900473ffffffffffffffffffffffffffffffffffffffff169050919050565b7f000000000000000000000000000000000000000000000000000000000000000073ffffffffffffffffffffffffffffffffffffffff163373ffffffffffffffffffffffffffffffffffffffff161461046b57337f00000000000000000000000000000000000000000000000000000000000000006040517f1cf993f4000000000000000000000000000000000000000000000000000000008152600401610462929190611456565b60405180910390fd5b6104758282610a01565b5050565b60045481565b7f00000000000000000000000000000000000000000000000000000000000000003410156104e2576040517f08c379a00000000000000000000000000000000000000000000000000000000081526004016104d9906114dc565b60405180910390fd5b600060018111156104f6576104f5611395565b5b600360149054906101000a900460ff16600181111561051857610517611395565b5b14610558576040517f08c379a000000000000000000000000000000000000000000000000000000000815260040161054f9061156e565b60405180910390fd5b6000339080600181540180825580915050600190039060005260206000200160009091909190916101000a81548173ffffffffffffffffffffffffffffffffffffffff021916908373ffffffffffffffffffffffffffffffffffffffff1602179055503373ffffffffffffffffffffffffffffffffffffffff167f6ba87006f2c53f2d227d45b3400034f16dbf4f6842816c4880d30170f3a6a16060405160405180910390a2565b600360009054906101000a900473ffffffffffffffffffffffffffffffffffffffff1681565b60006106406040518060200160405280600081525061085f565b509050806106af5747600080549050600360149054906101000a900460ff16600181111561067157610670611395565b5b6040517fa9e3cfef0000000000000000000000000000000000000000000000000000000081526004016106a69392919061158e565b60405180910390fd5b6001600360146101000a81548160ff021916908360018111156106d5576106d4611395565b5b021790555060007f000000000000000000000000000000000000000000000000000000000000000073ffffffffffffffffffffffffffffffffffffffff16635d3b1d307f00000000000000000000000000000000000000000000000000000000000000007f000000000000000000000000000000000000000000000000000000000000000060037f000000000000000000000000000000000000000000000000000000000000000060016040518663ffffffff1660e01b815260040161079f959493929190611601565b6020604051808303816000875af11580156107be573d6000803e3d6000fd5b505050506040513d601f19601f820116820180604052508101906107e29190611669565b9050807f1fe6c803a34f3487c47f1c0c9d1723f1d731ab15ae39e407f7aaa1396d4b0bea60405160405180910390a250505050565b7f000000000000000000000000000000000000000000000000000000000000000081565b7f000000000000000000000000000000000000000000000000000000000000000081565b60006060600080600181111561087857610877611395565b5b600360149054906101000a900460ff16600181111561089a57610899611395565b5b14905060007f0000000000000000000000000000000000000000000000000000000000000000600454426108ce91906116c5565b119050600080600080549050119050600080471190508380156108ee5750825b80156108f75750805b80156109005750815b955050505050915091565b7f000000000000000000000000000000000000000000000000000000000000000081565b7f000000000000000000000000000000000000000000000000000000000000000081565b60015481565b60008080549050905090565b600360149054906101000a900460ff1681565b60008060047f00000000000000000000000000000000000000000000000000000000000000006000805490506109ae91906116f9565b6109b891906116f9565b90506005816109c7919061176a565b90506001600080549050036109fa577f000000000000000000000000000000000000000000000000000000000000000090505b8091505090565b6000808054905082600081518110610a1c57610a1b611427565b5b6020026020010151610a2e919061179b565b90506000808281548110610a4557610a44611427565b5b9060005260206000200160009054906101000a900473ffffffffffffffffffffffffffffffffffffffff16905080600360006101000a81548173ffffffffffffffffffffffffffffffffffffffff021916908373ffffffffffffffffffffffffffffffffffffffff1602179055506000610abd610978565b905060008273ffffffffffffffffffffffffffffffffffffffff1682604051610ae5906117fd565b60006040518083038185875af1925050503d8060008114610b22576040519150601f19603f3d011682016040523d82523d6000602084013e610b27565b606091505b5050905080610b6b576040517f08c379a0000000000000000000000000000000000000000000000000000000008152600401610b629061185e565b60405180910390fd5b8273ffffffffffffffffffffffffffffffffffffffff167f794919b0f484b8e90b1b817ac7f880f846fbd8a9813dee2a378e820db094e3d160405160405180910390a2816001819055506000600260009054906101000a900473ffffffffffffffffffffffffffffffffffffffff1673ffffffffffffffffffffffffffffffffffffffff1647604051610bfd906117fd565b60006040518083038185875af1925050503d8060008114610c3a576040519150601f19603f3d011682016040523d82523d6000602084013e610c3f565b606091505b5050905080610c83576040517f08c379a0000000000000000000000000000000000000000000000000000000008152600401610c7a906118ca565b60405180910390fd5b600067ffffffffffffffff811115610c9e57610c9d610eae565b5b604051908082528060200260200182016040528015610ccc5781602001602082028036833780820191505090505b5060009080519060200190610ce2929190610d1e565b50426004819055506000600360146101000a81548160ff02191690836001811115610d1057610d0f611395565b5b021790555050505050505050565b828054828255906000526020600020908101928215610d97579160200282015b82811115610d965782518260006101000a81548173ffffffffffffffffffffffffffffffffffffffff021916908373ffffffffffffffffffffffffffffffffffffffff16021790555091602001919060010190610d3e565b5b509050610da49190610da8565b5090565b5b80821115610dc1576000816000905550600101610da9565b5090565b6000604051905090565b600080fd5b600080fd5b6000819050919050565b610dec81610dd9565b8114610df757600080fd5b50565b600081359050610e0981610de3565b92915050565b600060208284031215610e2557610e24610dcf565b5b6000610e3384828501610dfa565b91505092915050565b600073ffffffffffffffffffffffffffffffffffffffff82169050919050565b6000610e6782610e3c565b9050919050565b610e7781610e5c565b82525050565b6000602082019050610e926000830184610e6e565b92915050565b600080fd5b6000601f19601f8301169050919050565b7f4e487b7100000000000000000000000000000000000000000000000000000000600052604160045260246000fd5b610ee682610e9d565b810181811067ffffffffffffffff82111715610f0557610f04610eae565b5b80604052505050565b6000610f18610dc5565b9050610f248282610edd565b919050565b600067ffffffffffffffff821115610f4457610f43610eae565b5b602082029050602081019050919050565b600080fd5b6000610f6d610f6884610f29565b610f0e565b90508083825260208201905060208402830185811115610f9057610f8f610f55565b5b835b81811015610fb95780610fa58882610dfa565b845260208401935050602081019050610f92565b5050509392505050565b600082601f830112610fd857610fd7610e98565b5b8135610fe8848260208601610f5a565b91505092915050565b6000806040838503121561100857611007610dcf565b5b600061101685828601610dfa565b925050602083013567ffffffffffffffff81111561103757611036610dd4565b5b61104385828601610fc3565b9150509250929050565b61105681610dd9565b82525050565b6000602082019050611071600083018461104d565b92915050565b600061108282610e3c565b9050919050565b61109281611077565b82525050565b60006020820190506110ad6000830184611089565b92915050565b600080fd5b60008083601f8401126110ce576110cd610e98565b5b8235905067ffffffffffffffff8111156110eb576110ea6110b3565b5b60208301915083600182028301111561110757611106610f55565b5b9250929050565b6000806020838503121561112557611124610dcf565b5b600083013567ffffffffffffffff81111561114357611142610dd4565b5b61114f858286016110b8565b92509250509250929050565b600067ffffffffffffffff82169050919050565b6111788161115b565b82525050565b6000602082019050611193600083018461116f565b92915050565b600080fd5b600067ffffffffffffffff8211156111b9576111b8610eae565b5b6111c282610e9d565b9050602081019050919050565b82818337600083830152505050565b60006111f16111ec8461119e565b610f0e565b90508281526020810184848401111561120d5761120c611199565b5b6112188482856111cf565b509392505050565b600082601f83011261123557611234610e98565b5b81356112458482602086016111de565b91505092915050565b60006020828403121561126457611263610dcf565b5b600082013567ffffffffffffffff81111561128257611281610dd4565b5b61128e84828501611220565b91505092915050565b60008115159050919050565b6112ac81611297565b82525050565b600081519050919050565b600082825260208201905092915050565b60005b838110156112ec5780820151818401526020810190506112d1565b60008484015250505050565b6000611303826112b2565b61130d81856112bd565b935061131d8185602086016112ce565b61132681610e9d565b840191505092915050565b600060408201905061134660008301856112a3565b818103602083015261135881846112f8565b90509392505050565b6000819050919050565b61137481611361565b82525050565b600060208201905061138f600083018461136b565b92915050565b7f4e487b7100000000000000000000000000000000000000000000000000000000600052602160045260246000fd5b600281106113d5576113d4611395565b5b50565b60008190506113e6826113c4565b919050565b60006113f6826113d8565b9050919050565b611406816113eb565b82525050565b600060208201905061142160008301846113fd565b92915050565b7f4e487b7100000000000000000000000000000000000000000000000000000000600052603260045260246000fd5b600060408201905061146b6000830185611089565b6114786020830184611089565b9392505050565b600082825260208201905092915050565b7f4e6f7420656e6f75676820455448000000000000000000000000000000000000600082015250565b60006114c6600e8361147f565b91506114d182611490565b602082019050919050565b600060208201905081810360008301526114f5816114b9565b9050919050565b7f43757272656e746c79206e6f7420616363657074696e6720706172746963697060008201527f616e747300000000000000000000000000000000000000000000000000000000602082015250565b600061155860248361147f565b9150611563826114fc565b604082019050919050565b600060208201905081810360008301526115878161154b565b9050919050565b60006060820190506115a3600083018661104d565b6115b0602083018561104d565b6115bd604083018461104d565b949350505050565b600061ffff82169050919050565b6115dc816115c5565b82525050565b600063ffffffff82169050919050565b6115fb816115e2565b82525050565b600060a082019050611616600083018861136b565b611623602083018761116f565b61163060408301866115d3565b61163d60608301856115f2565b61164a60808301846115f2565b9695505050505050565b60008151905061166381610de3565b92915050565b60006020828403121561167f5761167e610dcf565b5b600061168d84828501611654565b91505092915050565b7f4e487b7100000000000000000000000000000000000000000000000000000000600052601160045260246000fd5b60006116d082610dd9565b91506116db83610dd9565b92508282039050818111156116f3576116f2611696565b5b92915050565b600061170482610dd9565b915061170f83610dd9565b925082820261171d81610dd9565b9150828204841483151761173457611733611696565b5b5092915050565b7f4e487b7100000000000000000000000000000000000000000000000000000000600052601260045260246000fd5b600061177582610dd9565b915061178083610dd9565b9250826117905761178f61173b565b5b828204905092915050565b60006117a682610dd9565b91506117b183610dd9565b9250826117c1576117c061173b565b5b828206905092915050565b600081905092915050565b50565b60006117e76000836117cc565b91506117f2826117d7565b600082019050919050565b6000611808826117da565b9150819050919050565b7f5472616e73666572206661696c65640000000000000000000000000000000000600082015250565b6000611848600f8361147f565b915061185382611812565b602082019050919050565b600060208201905081810360008301526118778161183b565b9050919050565b7f5769746864726177204661696c65640000000000000000000000000000000000600082015250565b60006118b4600f8361147f565b91506118bf8261187e565b602082019050919050565b600060208201905081810360008301526118e3816118a7565b905091905056fea26469706673582212201faaa3c731369bfbf3f5bddc4dd5f7ea28e309b72d9835a04a944a1031f29d2464736f6c63430008110033",
  "devdoc": {
    "author": "Aarav Jain",
    "details": "This implements ChainLink VRFV2 and ChainLink Automation",
    "kind": "dev",
    "methods": {
      "checkUpkeep(bytes)": {
        "details": "This is the function that the Chainlink Keeper nodes call they look for the upKeepNeeded to return true In order to trigger the call of upKeep, the following should happen 1. Our timeinterval should have passed 2. Lottery should have atleast 1 player 3. Our subscription should be funded with LINK 4. Lottery should be in open state"
      },
      "enter_lottery()": {
        "details": "msg.value send the money from the user to the contract Checks whether the participant is paying enough ETH to enter the lottery Also checking whether the lottery is accepting participants "
      }
    },
    "stateVariables": {
      "i_entranceFee": {
        "details": "The State Variables are kept private or immutable in order to make them gas effecient https://www.alchemy.com/overviews/solidity-gas-optimization#:~:text=What%20is%20gas%20and%20gas,code%20less%20expensive%20to%20execute. A good article on Gas Optimization in Solidity List of State variables and their purposes 1. `i_entranceFee` :Entrance fee of the lottery which will be decided by the deployer 2. `s_participants`:List of Participants 3. `i_vrfCoordinator`: 4. `i_gasLane`: 5. `i_subscriptionId`: 6. `REQUEST_CONFIRMATION`: 7. `i_callBackGasLimit`: 8. `NUM_WORDS`:"
      }
    },
    "title": "A sample lottery contract",
    "version": 1
  },
  "userdoc": {
    "events": {
      "lotteryEnter(address)": {
        "notice": "Events"
      }
    },
    "kind": "user",
    "methods": {
      "checkUpkeep(bytes)": {
        "notice": "Using Chainlink keepers to automate the execution of selecting random winners"
      },
      "i_entranceFee()": {
        "notice": "State Variables"
      },
      "s_winner()": {
        "notice": "Lottery Variables 1. `s_winner` : Winner of the previous lottery 2. `s_lotteryState` : State of the lottery 3. `s_lastTimeStamp`: Last time the winner was chosen 4. `i_interval` : An interval after which the winner would be chosen "
      }
    },
    "notice": "This contract is for creating an untemperable decentralized smart contract\\",
    "version": 1
  },
  "storageLayout": {
    "storage": [
      {
        "astId": 199,
        "contract": "contracts/lottery.sol:Lottery",
        "label": "s_participants",
        "offset": 0,
        "slot": "0",
        "type": "t_array(t_address_payable)dyn_storage"
      },
      {
        "astId": 217,
        "contract": "contracts/lottery.sol:Lottery",
        "label": "lastPrizeValue",
        "offset": 0,
        "slot": "1",
        "type": "t_uint256"
      },
      {
        "astId": 219,
        "contract": "contracts/lottery.sol:Lottery",
        "label": "i_deployer",
        "offset": 0,
        "slot": "2",
        "type": "t_address_payable"
      },
      {
        "astId": 222,
        "contract": "contracts/lottery.sol:Lottery",
        "label": "s_winner",
        "offset": 0,
        "slot": "3",
        "type": "t_address"
      },
      {
        "astId": 225,
        "contract": "contracts/lottery.sol:Lottery",
        "label": "s_lotteryState",
        "offset": 20,
        "slot": "3",
        "type": "t_enum(State)193"
      },
      {
        "astId": 227,
        "contract": "contracts/lottery.sol:Lottery",
        "label": "s_lastTimeStamp",
        "offset": 0,
        "slot": "4",
        "type": "t_uint256"
      }
    ],
    "types": {
      "t_address": {
        "encoding": "inplace",
        "label": "address",
        "numberOfBytes": "20"
      },
      "t_address_payable": {
        "encoding": "inplace",
        "label": "address payable",
        "numberOfBytes": "20"
      },
      "t_array(t_address_payable)dyn_storage": {
        "base": "t_address_payable",
        "encoding": "dynamic_array",
        "label": "address payable[]",
        "numberOfBytes": "32"
      },
      "t_enum(State)193": {
        "encoding": "inplace",
        "label": "enum Lottery.State",
        "numberOfBytes": "1"
      },
      "t_uint256": {
        "encoding": "inplace",
        "label": "uint256",
        "numberOfBytes": "32"
      }
    }
  }
}